:100000000C9435000C945D000C945D000C945D0024
:100010000C945D000C945D000C945D000C945D00EC
:100020000C945D000C945D040C945D000C945D00D8
:100030000C945D000C945D000C945D000C945D00CC
:100040000C945D000C945D000C942B040C9405043E
:100050000C945D000C945D000C945D000C945D00AC
:100060000C945D000C945D002C0A11241FBECFEF90
:10007000D8E0DEBFCDBF11E0A0E0B1E0E6ECF5E1F5
:1000800002C005900D92AA31B107D9F722E0AAE18A
:10009000B1E001C01D92A93DB207E1F710E0C5E350
:1000A000D0E004C02197FE010E94DB0AC433D107CF
:1000B000C9F70E94A7040C94590A0C940000FC0193
:1000C000918D828D981761F0A28DAE0FBF2FB11D5B
:1000D0005D968C91928D9F5F9F73928F90E00895B3
:1000E0008FEF9FEF0895FC01918D828D981731F06D
:1000F000828DE80FF11D858D90E008958FEF9FEFC1
:100100000895FC01918D228D892F90E0805C9F4F96
:10011000821B91098F7399270895FC01A48DA80F64
:10012000B92FB11DA35ABF4F2C91848D90E0019639
:100130008F739927848FA689B7892C93A089B18959
:100140008C9180648C93938D848D981306C0028863
:10015000F389E02D80818F7D80830895EF92FF9257
:100160000F931F93CF93DF93EC0181E0888F9B8DDA
:100170008C8D981316C0E889F989808185FF11C09C
:10018000EE89FF896083E889F989808180648083B2
:1001900081E090E0DF91CF911F910F91FF90EF9060
:1001A0000895F62E0B8D10E00F5F1F4F0F73112770
:1001B000E02E8C8D8E110CC00FB607FCFACFE889AB
:1001C000F989808185FFF5CFCE010E948D00F1CFA6
:1001D000EB8DEC0FFD2FF11DE35AFF4FF0820B8FDB
:1001E000EA89FB8980818062D2CF682F8CE392E01C
:1001F0000C94AE00CF93DF93EC01888D8823B9F087
:10020000AA89BB89E889F9898C9185FD03C0808121
:1002100086FD0DC00FB607FCF7CF8C9185FFF2CF9E
:10022000808185FFEDCFCE010E948D00E9CFDF9167
:10023000CF9108958CE392E00E94810021E0892B08
:1002400009F420E0822F089580E090E0892B29F0C6
:100250000E941A0181110C9400000895AF92BF9280
:10026000CF92DF92EF92FF920F931F93CF93DF9382
:100270006C017B018B01040F151FEB015E01AE18B1
:10028000BF08C017D10759F06991D601ED91FC91D3
:100290000190F081E02DC6010995892B79F7C50100
:1002A000DF91CF911F910F91FF90EF90DF90CF9052
:1002B000BF90AF900895CF93DF931F92CDB7DEB775
:1002C000198280917A00806480937A0080917A000C
:1002D00086FDFCCF80917800898390917900898197
:1002E0000F90DF91CF9108953FB7F89480911F014F
:1002F00090912001A0912101B09122012091B200A2
:10030000B89B05C02F3F19F00196A11DB11D3FBF3D
:10031000BA2FA92F982F8827BC01CD01620F711D1C
:10032000811D911D42E0660F771F881F991F4A9516
:10033000D1F708958F929F92AF92BF92CF92DF92A2
:10034000EF92FF924B015C010E9474016B017C01F2
:100350000E9474016C197D098E099F09683E7340E3
:1003600081059105A8F321E0821A9108A108B1083E
:1003700088EEC80E83E0D81EE11CF11C81149104A4
:10038000A104B10429F7FF90EF90DF90CF90BF90C8
:10039000AF909F908F900895CF93DF93C1E0D1E00D
:1003A000219769F08CE392E00E948100892BC1F3D0
:1003B0008CE392E00E945F00DF91CF91089580E08E
:1003C000FBCFCF93C82F0E94CC01803251F484E13F
:1003D0000E94F5008C2F0E94F50080E1CF910C94D3
:1003E000F50080913B028F5F80933B0285E1F6CF61
:1003F0000E94CC01803231F484E10E94F50080E15A
:100400000C94F50080913B028F5F80933B0285E165
:10041000F7CF0F931F93CF93DF938C01C8E3D1E005
:10042000CE01885391408017910724F40E94CC019B
:100430008993F6CFDF91CF911F910F9108950F937C
:100440001F93CF93DF938C010E940902D0E0C0E09C
:10045000C017D10744F46DE270E080E090E00E94A4
:100460009A012196F5CF80E1DF91CF911F910F91F5
:100470000895CF93DF931F92CDB7DEB72C9A1982E0
:1004800099819817F0F42D980000000000000000FA
:10049000000000000000000000000000000000005C
:1004A0002D9A000000000000000000000000000085
:1004B0000000000000000000000099819F5F998308
:1004C000DFCF0F90DF91CF910895CF93DF9300D0CE
:1004D000CDB7DEB71A828823D9F02D982C9800006A
:1004E000000000000000000000000000000000000C
:1004F0000000000000002D9A000000000000000035
:1005000000000000000000000000000000000000EB
:1005100024982C9A00000000000000000000000059
:100520000000000000000000000000001982898126
:10053000883008F028C08A8190E0959587958A8355
:100540002D980000000000000000000000000000E6
:10055000000000000000000000001C9B03C08A8116
:1005600080688A832D9A00000000000000000000CF
:100570000000000000000000000000000000898171
:100580008F5F8983D4CF249A2D98662301F12C9A0A
:10059000000000000000000000000000000000005B
:1005A00000000000000000002D9A00000000000084
:1005B000000000000000000000000000000000003B
:1005C00000008A810F900F90DF91CF9108952C98B1
:1005D000DFCFCF93DF931F92CDB7DEB7882309F427
:1005E00027C02D980000000000000000000000005F
:1005F0000000000000000000000000002C98000037
:1006000000000000000000000000000000000000EA
:100610000000000000002D9A000000000000000013
:1006200000000000000000000000000000000000CA
:10063000198289812D98883008F027C0862F90E094
:1006400060FF21C02C9A00000000000000000000A4
:100650000000000000000000000000000000BC01DD
:10066000759567952D9A00000000000000000000BD
:100670000000000000000000000000000000898170
:100680008F5F8983D6CF2C98DECF4423F1F02C9A4C
:10069000000000000000000000000000000000005A
:1006A00000000000000000002D9A00000000000083
:1006B000000000000000000000000000000000003A
:1006C00000000F90DF91CF9108952C98E1CF1F93F8
:1006D000CF93DF93C82F162FD72F40E061EB81E037
:1006E0000E94E90240E0612F80E00E94E90240E0C0
:1006F0006D2F80E00E94E90240E06C2F80E00E94B4
:10070000E90240E060E080E00E94E90241E06FE041
:1007100080E00E94E90288E2DF91CF911F910C9462
:100720003902CF93C82F40E061EB81E00E94E902DB
:1007300041E06C2F80E00E94E90282E0CF910C94AE
:1007400039021F93CF93DF93D82F162FC72F40E086
:1007500062EB81E00E94E90240E0612F80E00E94AC
:10076000E902CF736D2F607C6C2B40E080E00E942B
:10077000E9026D2F606C41E080E00E94E90284E0B4
:10078000DF91CF911F910C943902CF93DF93EC014D
:1007900041E06EEA81E00E94E90284E00E943902B1
:1007A00060E081E00E946502888360E080E00E9452
:1007B0006502898360E080E00E9465028A8361E0CF
:1007C00080E00E9465028B8384E00E94390240E051
:1007D00060ED81E00E94E90240E06AEA80E00E9468
:1007E000E90240E065E580E00E94E90240E06AEA53
:1007F00080E00E94E90241E065E580E00E94E902B4
:1008000084E0DF91CF910C9439021F920F920FB6C2
:100810000F9211242F933F934F935F936F937F9386
:100820008F939F93AF93BF93EF93FF938CE392E0EB
:100830000E948D00FF91EF91BF91AF919F918F9199
:100840007F916F915F914F913F912F910F900FBECC
:100850000F901F9018951F920F920FB60F921124B0
:100860002F938F939F93EF93FF93E0914C02F0911E
:100870004D028081E0915202F091530282FD1BC033
:100880009081809155028F5F8F732091560282175D
:1008900041F0E0915502F0E0E45CFD4F958F8093CC
:1008A0005502FF91EF919F918F912F910F900FBE65
:1008B0000F901F9018958081F4CF1F920F920FB662
:1008C0000F9211242F933F938F939F93AF93BF93D6
:1008D00080911B0190911C01A0911D01B0911E01FE
:1008E00030911A0123E0230F2D3758F50196A11DF1
:1008F000B11D20931A0180931B0190931C01A093BA
:100900001D01B0931E0180911F0190912001A091C3
:100910002101B09122010196A11DB11D80931F01FB
:1009200090932001A0932101B0932201BF91AF9138
:100930009F918F913F912F910F900FBE0F901F901D
:10094000189526E8230F0296A11DB11DD2CFCF9393
:10095000DF9300D000D000D01F92CDB7DEB78091DA
:1009600062008C708C3009F0E6C08091F2008460E7
:100970008EBB10E81093F2008EB38093F20064E116
:1009800070E080E090E00E949A018091F2008F79FF
:1009900080628EBB1093F2008EB38093F2001093AE
:1009A0006100109261008091F20080618EBB80E84E
:1009B0008093F2008EB38093F200789484B58260C5
:1009C00084BD84B5816084BD85B5826085BD85B5F3
:1009D000816085BD1092810080918100816080934B
:1009E00081008091810080618093810080918000EE
:1009F0008260809380008FE3809387009FEF9093C5
:100A000086008091B10084608093B1008091B00035
:100A100082608093B0008091B00081608093B000CC
:100A2000809170008160809370008091910081605E
:100A300080939100809191008061809391008091DA
:100A400090008260809390009093960080917A004D
:100A5000846080937A0080917A00826080937A002B
:100A600080917A00816080937A0080917A0080681A
:100A700080937A001092C10080916600863008F45D
:100A800061C0865080936600E0914C02F0914D0267
:100A900082E08083E0914802F09149021082E09167
:100AA0004A02F0914B0280E1808310925402E0915F
:100AB0005002F091510286E08083E0914E02F09165
:100AC0004F02808180618083E0914E02F0914F025D
:100AD000808188608083E0914E02F0914F02808196
:100AE00080688083E0914E02F0914F0280818F7D7B
:100AF00080838CE392E00E948100892B09F49AC1E3
:100B00000E94CC01813509F43DC408F0A4C08134B1
:100B100009F40AC1D0F4803309F4EFC0813309F439
:100B2000F1C0803209F08CC480913B028F5F8093CA
:100B30003B0285E152C380E88093610081E08093AD
:100B4000610031CF109266009FCF853409F49AC1BD
:100B5000803509F49CC1823409F072C484E190E0CC
:100B60000E9409028091380180932501809139010A
:100B70008093260180913A018093270180913B0167
:100B80008093280180913C018093290180913D014F
:100B900080932A0180913E0180932B0180913F0137
:100BA00080932C018091400180932D01809142011E
:100BB00090E0982F882720914301820F911D9093F8
:100BC0002F0180932E018091440190E0982F882777
:100BD00020914501820F911D909331018093300146
:100BE0008091460190E0982F882720914701820F3D
:100BF000911D90933301809332018091480190E0E0
:100C0000B0E0A0E0BA2FA92F982F882720914901A2
:100C1000820F911DA11DB11DDC01992788274091EC
:100C20004A0150E0542F4427052E000C660B770B29
:100C3000840F951FA61FB71F20914B01820F911D96
:100C4000A11DB11D8093340190933501A09336010D
:100C5000B093370154C0813609F41FC2C0F4863501
:100C600009F472C3803609F416C2853509F0E8C369
:100C70000E94CC01182F0E94CC0190E0982F882769
:100C8000810F911D909339028093380238C08437C8
:100C900009F4B5C2853709F4C1C3843609F0D0C35D
:100CA0000E94CC01082F10E0102F00270E94CC01D9
:100CB000080F111D0E94CC01863409F075C2C801CD
:100CC0000E9409020E94CC01803209F02DCF84E1FC
:100CD0000E94F500F801E85CFE4F88E391E09F83F5
:100CE0008E83CF01885391409C0123703327232B9F
:100CF00009F4D6C19FEF9193F0CF10923B020E946E
:100D0000F80198C00E94CC01803209F00DCF84E137
:100D10000E94F50047E050E061E171E08CE392E071
:100D20000E942E0180E159C20E94CC01823809F450
:100D300090C040F4803809F47AC0813809F487C043
:100D400080E076C0833909F49BC0883909F496C0E5
:100D50008438B1F71092240181E08093230183E06D
:100D6000809300018091A0008C7082608093A0002D
:100D70008091AD008F7B8093AD0080910001823027
:100D800009F069C08091CE008093C8008091000175
:100D90008295880F880F807C80937C008091AD00C5
:100DA000807F8093AD008091AD0086608093AD0020
:100DB0008091000120E4829FC0011124886080930B
:100DC0007C0080917D00806280937D000E945B01A9
:100DD0008C0180917D008F7D80937D000E945B015E
:100DE000800F911FDC01B695A795892F9927A81B25
:100DF000B90B80912401882349F09091230191300F
:100E0000B9F502C0B695A7958A95E2F720E034E1DE
:100E10000E94C00A2FEF3FE040E050E00E945C0AD1
:100E2000C90164E670E00E94AC0A862F01C082E02E
:100E30000E94E10180E090E0892B09F45ACE0E94E3
:100E40001A01882309F455CE0E94000052CE84E096
:100E5000EFCF81E0EDCF843041F48091AD0080642C
:100E60008093AD008091CC008FCF8091CD008CCF4E
:100E700002C0AA0FBB1F8A95E2F7C8CF83E0D8CF84
:100E800083E5D6CF85E090E00E94090238CF8091BB
:100E90003A02811134CF219A299A64E170E080E00E
:100EA00090E00E949A01299884B1806384B92C98BB
:100EB0002D9819821A821B821C82CE0101960E94F3
:100EC000C50389819A81AB81BC8181608F33924A4D
:100ED000A045B94E39F088E20E943902CE01019650
:100EE0000E94C50389819A81AB81BC8181608F3367
:100EF000924AA045B94E61F010923A020E94CC018C
:100F0000803209F011CE84E10E94F50081E165C1D3
:100F100040E060EF81E00E94E90240E064E580E0AB
:100F20000E94E90240E061E580E00E94E90240E0C1
:100F30006AE480E00E94E90241E06CE480E00E9403
:100F4000E90284E00E94390261E070E080E00E94E2
:100F5000A10361E070E086E20E94A10361E070E01D
:100F600086EA0E94A10360EA70E080E090E00E94BF
:100F70009A0161E070E082EA0E94A10363E070E000
:100F800080E090E00E949A0161E070E082E20E94BD
:100F9000A10361E070E080E00E94A10340E060EF07
:100FA00081E00E94E90240E060E080E00E94E90206
:100FB00040E060E080E00E94E90240E060E080E024
:100FC0000E94E90241E060E080E00E94E90284E0E2
:100FD0000E9439026DE370E68CE090E00E946703A6
:100FE00040E060EF81E00E94E90240E063E480E0DD
:100FF0000E94E90240E060E480E00E94E90240E0F3
:1010000069E580E00E94E90241E06DE580E00E9430
:10101000E90284E00E94390288E20E94390240E03D
:1010200061EB81E00E94E90240E06CE080E00E9418
:10103000E90240E060E080E00E94E90241E067E10F
:1010400080E00E94E90288E20E94390241E069EAF8
:1010500081E00E94E90284E00E94390260E081E0C0
:101060000E946502082F10E061E080E00E946502A6
:10107000182B84E00E94390200FD06C0B8016160AF
:101080008CE090E00E9467038DE00E94910381E074
:1010900080933A0234CE0E94CC010E94CC012FCE24
:1010A0001C013594279435942794609038027090F1
:1010B0003902230155944794D12CC12CEFEFED83D5
:1010C0007201EC0CFD1C2C143D0409F44FC08F2D53
:1010D0009927FD81F817190669F08D83B70180E023
:1010E0000E94A103B70181E20E94A103B70181EA36
:1010F0000E94A103EE81FF8181909190A190B19017
:10110000FF83EE8340E062EB81E00E94E90240E071
:10111000682D80E00E94E90299278B2D7A2D692D98
:1011200040E080E00E94E902B5018827992740E06D
:1011300080E00E94E9026B2D77278827992741E0FC
:1011400080E00E94E90284E00E943902B70181EA4E
:101150000E94A103B70181EB0E94A103B70181EABC
:101160000E94A103FFEFCF1ADF0AAACF21E0421AA3
:101170005108420C531CB20180EA0E94A103B20143
:1011800080E20E94A103B20180E00E94A10317FF48
:1011900002C00F5F1F4F15950795060D171D109381
:1011A000390200933802BECD853409F0AFCE80916C
:1011B0003201909133018017910794F480913B02A2
:1011C0008F5F80933B0211E10E94CC01803209F0D5
:1011D000ABCC84E10E94F500812F0E94F5002ACE5D
:1011E000013211053CF080E290E00E941F020052A3
:1011F0001109F6CFC8010E941F0210E1E5CF0E943D
:10120000CC01082F0E94CC01E82E0E94CC01F82EC0
:101210000E94CC01803209F087CC10E0102F00270B
:101220000E0D111D84E10E94F50086E4F8127CC0C9
:101230002801A0903802B0903902350193E069226C
:101240007724C80183709927009719F08C010C5FEF
:101250001F4F1695079516950795B594A79461E0CD
:1012600070E080E00E94A10328E3E22E21E0F22E4C
:10127000D12CC12C45018C0C9D1C0C151D0579F140
:10128000B40180E30E94A103B40188E30E94A1039A
:1012900041E06AEA81E00E94E90260E081E00E94A8
:1012A0006502F701808360E080E00E946502F7013B
:1012B000818360E080E00E946502F701828361E043
:1012C00080E00E946502F701838384E00E94390276
:1012D000FFEFCF1ADF0A24E0E20EF11CCBCF61E072
:1012E00070E080E00E94A103C301885C9E4F3C0136
:1012F0008C01C80186199709841595050CF012CD4B
:10130000F80180810E94F500F80181810E94F500BA
:10131000809138029091390201969093390280931E
:1013200038020E5F1F4FE5CFF5E4FF12EFCDF12C31
:10133000E12C0E151F0509F4F5CC8FEF0E94F50086
:101340002FEFE21AF20AF5CF84E090E00E94090242
:1013500080913801803399F480913901811107C05F
:1013600080913A01813039F020F0823031F08FEFF6
:101370005FCD8EE15DCD85E95BCD8FE059CD803FBE
:10138000B1F7DECC10923B02299A21988DE00E94A1
:1013900091036FEF7FEF82E090E00E9467036FEFB1
:1013A0007FEF84E090E00E9467036FEF7FEF86E0BD
:1013B00090E00E9467036FEF7FEF88E090E00E946B
:1013C00067036FEF7FEF8AE090E00E94670341E0E0
:1013D00060E281E00E94E90284E00E94390241E07B
:1013E00060E081E00E94E90241E061E281E00E9468
:1013F000E90284E00E9439028BE193E00197F1F762
:101400008CE00E94910388E20E94390284B18F7CB3
:1014100084B92C982D9810923A0271CC0E94CC017C
:10142000803209F081CB84E10E94F5008EE10E94B8
:10143000F50085E90E94F5008AE00E94F50072CC73
:1014400080913B028F5F80933B020E94CC018032EF
:1014500009F06FCB82E1C1CEECE3F2E0138212829D
:1014600088EE93E0A0E0B0E084839583A683B78301
:1014700085E091E09183808385EC90E09587848777
:1014800084EC90E09787868780EC90E0918B808B4E
:1014900081EC90E0938B828B82EC90E0958B848B37
:1014A00086EC90E0978B868B118E128E138E148EA5
:1014B0000895F8940C94E10A052E97FB1EF400940D
:1014C0000E94730A57FD07D00E947B0A07FC03D0D5
:1014D0004EF40C94730A50954095309521953F4FEA
:1014E0004F4F5F4F089590958095709561957F4F10
:1014F0008F4F9F4F0895A1E21A2EAA1BBB1BFD011F
:101500000DC0AA1FBB1FEE1FFF1FA217B307E407E2
:10151000F50720F0A21BB30BE40BF50B661F771F3A
:10152000881F991F1A9469F760957095809590951A
:101530009B01AC01BD01CF010895A29FB001B39FF3
:10154000C001A39F700D811D1124911DB29F700DCC
:10155000811D1124911D089597FB072E16F4009408
:1015600007D077FD09D00E94C70A07FC05D03EF4DA
:10157000909581959F4F0895709561957F4F08953F
:101580000E949D0AB7FF0895821B930B0895AA1B22
:10159000BB1B51E107C0AA1FBB1FA617B70710F05E
:1015A000A61BB70B881F991F5A95A9F78095909590
:1015B000BC01CD010895EE0FFF1F0590F491E02DC1
:0615C0000994F894FFCF2E
:1015C6000100000000AE002E0181005F007300FAEA
:0A15D6000041565220495350000016
:00000001FF
